{
  "contractName": "Ride",
  "abi": [
    {
      "inputs": [],
      "payable": false,
      "stateMutability": "nonpayable",
      "type": "constructor"
    },
    {
      "anonymous": false,
      "inputs": [
        {
          "indexed": false,
          "internalType": "address",
          "name": "driver",
          "type": "address"
        },
        {
          "indexed": false,
          "internalType": "bool",
          "name": "availabilty",
          "type": "bool"
        }
      ],
      "name": "AvailabiltyChanged",
      "type": "event"
    },
    {
      "anonymous": false,
      "inputs": [
        {
          "indexed": false,
          "internalType": "address",
          "name": "user",
          "type": "address"
        },
        {
          "indexed": false,
          "internalType": "uint256",
          "name": "amount",
          "type": "uint256"
        }
      ],
      "name": "DepositMade",
      "type": "event"
    },
    {
      "anonymous": false,
      "inputs": [
        {
          "indexed": false,
          "internalType": "address",
          "name": "driver",
          "type": "address"
        },
        {
          "indexed": false,
          "internalType": "string",
          "name": "carPlate",
          "type": "string"
        },
        {
          "indexed": false,
          "internalType": "uint8",
          "name": "carSize",
          "type": "uint8"
        }
      ],
      "name": "DriverAdded",
      "type": "event"
    },
    {
      "anonymous": false,
      "inputs": [
        {
          "indexed": false,
          "internalType": "address",
          "name": "driver",
          "type": "address"
        },
        {
          "components": [
            {
              "internalType": "uint256",
              "name": "longtitude",
              "type": "uint256"
            },
            {
              "internalType": "uint256",
              "name": "latitude",
              "type": "uint256"
            }
          ],
          "indexed": false,
          "internalType": "struct Ride.Location",
          "name": "location",
          "type": "tuple"
        }
      ],
      "name": "LocationChanged",
      "type": "event"
    },
    {
      "anonymous": false,
      "inputs": [
        {
          "indexed": false,
          "internalType": "address",
          "name": "user",
          "type": "address"
        },
        {
          "indexed": false,
          "internalType": "address",
          "name": "driver",
          "type": "address"
        },
        {
          "indexed": false,
          "internalType": "uint256",
          "name": "amount",
          "type": "uint256"
        }
      ],
      "name": "PaymentSuccesful",
      "type": "event"
    },
    {
      "anonymous": false,
      "inputs": [
        {
          "indexed": false,
          "internalType": "address",
          "name": "user",
          "type": "address"
        },
        {
          "indexed": false,
          "internalType": "uint256",
          "name": "cost",
          "type": "uint256"
        },
        {
          "components": [
            {
              "internalType": "uint256",
              "name": "longtitude",
              "type": "uint256"
            },
            {
              "internalType": "uint256",
              "name": "latitude",
              "type": "uint256"
            }
          ],
          "indexed": false,
          "internalType": "struct Ride.Location",
          "name": "startPoint",
          "type": "tuple"
        }
      ],
      "name": "RideAccepted",
      "type": "event"
    },
    {
      "anonymous": false,
      "inputs": [
        {
          "indexed": false,
          "internalType": "address",
          "name": "user",
          "type": "address"
        }
      ],
      "name": "RideRequestCanceled",
      "type": "event"
    },
    {
      "anonymous": false,
      "inputs": [
        {
          "indexed": false,
          "internalType": "address",
          "name": "user",
          "type": "address"
        },
        {
          "indexed": false,
          "internalType": "address",
          "name": "driver",
          "type": "address"
        }
      ],
      "name": "RideRequestDeleted",
      "type": "event"
    },
    {
      "anonymous": false,
      "inputs": [
        {
          "indexed": false,
          "internalType": "address",
          "name": "driver",
          "type": "address"
        },
        {
          "indexed": false,
          "internalType": "address",
          "name": "user",
          "type": "address"
        },
        {
          "components": [
            {
              "internalType": "uint256",
              "name": "longtitude",
              "type": "uint256"
            },
            {
              "internalType": "uint256",
              "name": "latitude",
              "type": "uint256"
            }
          ],
          "indexed": false,
          "internalType": "struct Ride.Location",
          "name": "start",
          "type": "tuple"
        },
        {
          "components": [
            {
              "internalType": "uint256",
              "name": "longtitude",
              "type": "uint256"
            },
            {
              "internalType": "uint256",
              "name": "latitude",
              "type": "uint256"
            }
          ],
          "indexed": false,
          "internalType": "struct Ride.Location",
          "name": "end",
          "type": "tuple"
        },
        {
          "indexed": false,
          "internalType": "uint256",
          "name": "cost",
          "type": "uint256"
        }
      ],
      "name": "RideRequested",
      "type": "event"
    },
    {
      "constant": true,
      "inputs": [
        {
          "internalType": "uint256",
          "name": "",
          "type": "uint256"
        }
      ],
      "name": "driverArray",
      "outputs": [
        {
          "internalType": "address",
          "name": "",
          "type": "address"
        }
      ],
      "payable": false,
      "stateMutability": "view",
      "type": "function"
    },
    {
      "constant": true,
      "inputs": [
        {
          "internalType": "address",
          "name": "",
          "type": "address"
        }
      ],
      "name": "drivers",
      "outputs": [
        {
          "internalType": "address",
          "name": "id",
          "type": "address"
        },
        {
          "internalType": "string",
          "name": "carPlate",
          "type": "string"
        },
        {
          "internalType": "uint8",
          "name": "carSize",
          "type": "uint8"
        },
        {
          "internalType": "bool",
          "name": "availabilty",
          "type": "bool"
        }
      ],
      "payable": false,
      "stateMutability": "view",
      "type": "function"
    },
    {
      "constant": true,
      "inputs": [
        {
          "internalType": "uint256",
          "name": "",
          "type": "uint256"
        }
      ],
      "name": "history",
      "outputs": [
        {
          "internalType": "address",
          "name": "user",
          "type": "address"
        },
        {
          "components": [
            {
              "internalType": "uint256",
              "name": "longtitude",
              "type": "uint256"
            },
            {
              "internalType": "uint256",
              "name": "latitude",
              "type": "uint256"
            }
          ],
          "internalType": "struct Ride.Location",
          "name": "startPoint",
          "type": "tuple"
        },
        {
          "components": [
            {
              "internalType": "uint256",
              "name": "longtitude",
              "type": "uint256"
            },
            {
              "internalType": "uint256",
              "name": "latitude",
              "type": "uint256"
            }
          ],
          "internalType": "struct Ride.Location",
          "name": "endPoint",
          "type": "tuple"
        },
        {
          "internalType": "uint256",
          "name": "cost",
          "type": "uint256"
        },
        {
          "internalType": "address payable",
          "name": "driver",
          "type": "address"
        },
        {
          "internalType": "uint256",
          "name": "timestamp",
          "type": "uint256"
        }
      ],
      "payable": false,
      "stateMutability": "view",
      "type": "function"
    },
    {
      "constant": true,
      "inputs": [
        {
          "internalType": "address",
          "name": "",
          "type": "address"
        }
      ],
      "name": "locations",
      "outputs": [
        {
          "internalType": "uint256",
          "name": "longtitude",
          "type": "uint256"
        },
        {
          "internalType": "uint256",
          "name": "latitude",
          "type": "uint256"
        }
      ],
      "payable": false,
      "stateMutability": "view",
      "type": "function"
    },
    {
      "constant": true,
      "inputs": [],
      "name": "owner",
      "outputs": [
        {
          "internalType": "address",
          "name": "",
          "type": "address"
        }
      ],
      "payable": false,
      "stateMutability": "view",
      "type": "function"
    },
    {
      "constant": true,
      "inputs": [
        {
          "internalType": "uint256",
          "name": "",
          "type": "uint256"
        }
      ],
      "name": "requestArray",
      "outputs": [
        {
          "internalType": "address",
          "name": "",
          "type": "address"
        }
      ],
      "payable": false,
      "stateMutability": "view",
      "type": "function"
    },
    {
      "constant": false,
      "inputs": [],
      "name": "deposit",
      "outputs": [
        {
          "internalType": "uint256",
          "name": "",
          "type": "uint256"
        }
      ],
      "payable": true,
      "stateMutability": "payable",
      "type": "function"
    },
    {
      "constant": false,
      "inputs": [
        {
          "internalType": "uint256",
          "name": "withdrawAmount",
          "type": "uint256"
        }
      ],
      "name": "withdraw",
      "outputs": [
        {
          "internalType": "uint256",
          "name": "remainingBal",
          "type": "uint256"
        }
      ],
      "payable": false,
      "stateMutability": "nonpayable",
      "type": "function"
    },
    {
      "constant": true,
      "inputs": [],
      "name": "balance",
      "outputs": [
        {
          "internalType": "uint256",
          "name": "",
          "type": "uint256"
        }
      ],
      "payable": false,
      "stateMutability": "view",
      "type": "function"
    },
    {
      "constant": false,
      "inputs": [
        {
          "internalType": "address payable",
          "name": "_driver",
          "type": "address"
        }
      ],
      "name": "ridePayment",
      "outputs": [],
      "payable": true,
      "stateMutability": "payable",
      "type": "function"
    },
    {
      "constant": true,
      "inputs": [],
      "name": "fetchHistory",
      "outputs": [
        {
          "components": [
            {
              "internalType": "address",
              "name": "user",
              "type": "address"
            },
            {
              "components": [
                {
                  "internalType": "uint256",
                  "name": "longtitude",
                  "type": "uint256"
                },
                {
                  "internalType": "uint256",
                  "name": "latitude",
                  "type": "uint256"
                }
              ],
              "internalType": "struct Ride.Location",
              "name": "startPoint",
              "type": "tuple"
            },
            {
              "components": [
                {
                  "internalType": "uint256",
                  "name": "longtitude",
                  "type": "uint256"
                },
                {
                  "internalType": "uint256",
                  "name": "latitude",
                  "type": "uint256"
                }
              ],
              "internalType": "struct Ride.Location",
              "name": "endPoint",
              "type": "tuple"
            },
            {
              "internalType": "uint256",
              "name": "cost",
              "type": "uint256"
            },
            {
              "internalType": "address payable",
              "name": "driver",
              "type": "address"
            },
            {
              "internalType": "uint256",
              "name": "timestamp",
              "type": "uint256"
            }
          ],
          "internalType": "struct Ride.History[]",
          "name": "",
          "type": "tuple[]"
        }
      ],
      "payable": false,
      "stateMutability": "view",
      "type": "function"
    },
    {
      "constant": false,
      "inputs": [
        {
          "internalType": "uint256",
          "name": "_latitude",
          "type": "uint256"
        },
        {
          "internalType": "uint256",
          "name": "_longtitude",
          "type": "uint256"
        }
      ],
      "name": "setLocation",
      "outputs": [],
      "payable": false,
      "stateMutability": "nonpayable",
      "type": "function"
    },
    {
      "constant": false,
      "inputs": [
        {
          "internalType": "string",
          "name": "_carPlate",
          "type": "string"
        },
        {
          "internalType": "uint8",
          "name": "_carSize",
          "type": "uint8"
        }
      ],
      "name": "addDriverInformation",
      "outputs": [],
      "payable": false,
      "stateMutability": "nonpayable",
      "type": "function"
    },
    {
      "constant": false,
      "inputs": [
        {
          "internalType": "bool",
          "name": "_available",
          "type": "bool"
        }
      ],
      "name": "changeAvailabilty",
      "outputs": [],
      "payable": false,
      "stateMutability": "nonpayable",
      "type": "function"
    },
    {
      "constant": false,
      "inputs": [
        {
          "internalType": "uint256",
          "name": "_cost",
          "type": "uint256"
        },
        {
          "internalType": "uint256",
          "name": "_startLongtitude",
          "type": "uint256"
        },
        {
          "internalType": "uint256",
          "name": "_startLatitude",
          "type": "uint256"
        },
        {
          "internalType": "uint256",
          "name": "_endLongtitude",
          "type": "uint256"
        },
        {
          "internalType": "uint256",
          "name": "_endLatitude",
          "type": "uint256"
        },
        {
          "internalType": "address payable",
          "name": "_driver",
          "type": "address"
        }
      ],
      "name": "rideRequest",
      "outputs": [],
      "payable": false,
      "stateMutability": "nonpayable",
      "type": "function"
    },
    {
      "constant": true,
      "inputs": [],
      "name": "fetchAllRequests",
      "outputs": [
        {
          "components": [
            {
              "internalType": "address",
              "name": "user",
              "type": "address"
            },
            {
              "components": [
                {
                  "internalType": "uint256",
                  "name": "longtitude",
                  "type": "uint256"
                },
                {
                  "internalType": "uint256",
                  "name": "latitude",
                  "type": "uint256"
                }
              ],
              "internalType": "struct Ride.Location",
              "name": "startPoint",
              "type": "tuple"
            },
            {
              "components": [
                {
                  "internalType": "uint256",
                  "name": "longtitude",
                  "type": "uint256"
                },
                {
                  "internalType": "uint256",
                  "name": "latitude",
                  "type": "uint256"
                }
              ],
              "internalType": "struct Ride.Location",
              "name": "endPoint",
              "type": "tuple"
            },
            {
              "internalType": "uint256",
              "name": "cost",
              "type": "uint256"
            },
            {
              "internalType": "address payable",
              "name": "driver",
              "type": "address"
            },
            {
              "internalType": "bool",
              "name": "driverConfirmation",
              "type": "bool"
            },
            {
              "internalType": "bool",
              "name": "userConfirmation",
              "type": "bool"
            }
          ],
          "internalType": "struct Ride.Request[]",
          "name": "",
          "type": "tuple[]"
        }
      ],
      "payable": false,
      "stateMutability": "view",
      "type": "function"
    },
    {
      "constant": false,
      "inputs": [
        {
          "internalType": "address",
          "name": "user",
          "type": "address"
        }
      ],
      "name": "acceptRequest",
      "outputs": [],
      "payable": false,
      "stateMutability": "nonpayable",
      "type": "function"
    },
    {
      "constant": false,
      "inputs": [],
      "name": "fetchAllDrivers",
      "outputs": [
        {
          "internalType": "address[]",
          "name": "",
          "type": "address[]"
        }
      ],
      "payable": false,
      "stateMutability": "nonpayable",
      "type": "function"
    },
    {
      "constant": false,
      "inputs": [
        {
          "internalType": "address",
          "name": "user",
          "type": "address"
        }
      ],
      "name": "declineRequest",
      "outputs": [],
      "payable": false,
      "stateMutability": "nonpayable",
      "type": "function"
    },
    {
      "constant": false,
      "inputs": [],
      "name": "cancelRequest",
      "outputs": [],
      "payable": false,
      "stateMutability": "nonpayable",
      "type": "function"
    }
  ],
  "bytecode": "0x608060405234801561001057600080fd5b50600980546001600160a01b03191633179055611efa806100326000396000f3fe60806040526004361061011f5760003560e01c806392ae1735116100a0578063bdc86aab11610064578063bdc86aab1461031f578063c0f4d29b1461034d578063d0e30db01461036d578063da31086c14610375578063f3301b86146103975761011f565b806392ae1735146102855780639f8c75b0146102a5578063a7a38f0b146102c5578063b69ef8a8146102f7578063b70bf16f1461030c5761011f565b806353909fda116100e757806353909fda146101f95780635610f8841461021b578063851b16f51461023b5780638baafd25146102505780638da5cb5b146102705761011f565b80631ea5a1f8146101245780632b8cc346146101465780632e1a7d4d146101665780634607ecc61461019c5780634aa60186146101c9575b600080fd5b34801561013057600080fd5b5061014461013f366004611545565b6103b9565b005b34801561015257600080fd5b50610144610161366004611545565b6104f8565b34801561017257600080fd5b506101866101813660046115da565b6105aa565b6040516101939190611d7f565b60405180910390f35b3480156101a857600080fd5b506101bc6101b73660046115da565b61062f565b6040516101939190611af2565b3480156101d557600080fd5b506101e96101e4366004611545565b610656565b6040516101939493929190611c24565b34801561020557600080fd5b5061020e61071b565b6040516101939190611d0e565b34801561022757600080fd5b5061014461023636600461156b565b6108b5565b34801561024757600080fd5b5061014461093f565b34801561025c57600080fd5b5061014461026b366004611589565b6109e1565b34801561027c57600080fd5b506101bc610ae7565b34801561029157600080fd5b506101bc6102a03660046115da565b610af6565b3480156102b157600080fd5b506101446102c0366004611628565b610b03565b3480156102d157600080fd5b506102e56102e03660046115da565b610c84565b60405161019396959493929190611c69565b34801561030357600080fd5b50610186610cfe565b61014461031a366004611545565b610d12565b34801561032b57600080fd5b5061033f61033a366004611545565b611071565b604051610193929190611d8d565b34801561035957600080fd5b506101446103683660046115f8565b61108a565b6101866110d4565b34801561038157600080fd5b5061038a611139565b6040516101939190611cec565b3480156103a357600080fd5b506103ac61119b565b6040516101939190611cfd565b336000818152600160205260409020546001600160a01b031681146103f95760405162461bcd60e51b81526004016103f090611d2f565b60405180910390fd5b6001600160a01b038281166000908152600260205260409020600601541633146104355760405162461bcd60e51b81526004016103f090611d5f565b6001600160a01b0382166000908152600260208190526040822080546001600160a01b0319168155600181018390559081018290556003810182905560048101829055600581019190915560060180546001600160b01b031916905561049a82611263565b6001600160a01b03821660009081526006602052604090819020805460ff19169055517fc359456b7f7636448f4392c23b8669eef559bfe175f5bcce2d9af62a622e215f906104ec9084903390611c09565b60405180910390a15050565b6001600160a01b038181166000908152600260205260409020600601541633146105345760405162461bcd60e51b81526004016103f090611d5f565b6001600160a01b038082166000908152600260205260409081902060068101805460ff60a01b1916600160a01b1790558054600582015492517ff2efb45297e1c4136c5cb09dc8c2071ca58ddbfca113dee44d9ea74087cc27bf9461059f9492169260010190611cc4565b60405180910390a150565b336000908152600360205260408120548211156105d95760405162461bcd60e51b81526004016103f090611d4f565b33600081815260036020526040808220805486900390555184156108fc0291859190818181858888f19350505050158015610618573d6000803e3d6000fd5b505033600090815260036020526040902054919050565b6005818154811061063c57fe5b6000918252602090912001546001600160a01b0316905081565b600160208181526000928352604092839020805481840180548651600261010097831615979097026000190190911695909504601f81018590048502860185019096528585526001600160a01b03909116949193929091908301828280156106ff5780601f106106d4576101008083540402835291602001916106ff565b820191906000526020600020905b8154815290600101906020018083116106e257829003601f168201915b5050506002909301549192505060ff8082169161010090041684565b33600081815260016020526040902054606091906001600160a01b031681146107565760405162461bcd60e51b81526004016103f090611d2f565b600554604080518281526020808402820101909152606091801561079457816020015b610781611348565b8152602001906001900390816107795790505b50905060005b6005548110156108ad576000600582815481106107b357fe5b60009182526020808320909101546001600160a01b039081168084526002909252604090922060060154909250163314156108a4576001600160a01b03808216600090815260026020818152604092839020835160e081018552815486168152845180860186526001830154815293820154848401528083019390935283518085018552600382015481526004820154928101929092529282015260058201546060820152600690910154918216608082015260ff600160a01b83048116151560a0830152600160a81b909204909116151560c0820152835184908490811061089857fe5b60200260200101819052505b5060010161079a565b5091505b5090565b336000818152600160205260409020546001600160a01b031681146108ec5760405162461bcd60e51b81526004016103f090611d2f565b3360008181526001602052604090819020600201805461ff00191661010086151502179055517f6923d9e41642be9a40b1446e2f83513e76f6f3c999c1f72f7782b8ee7da5ee8b916104ec918590611b82565b61094833611263565b336000818152600660208181526040808420805460ff1916905560029182905280842080546001600160a01b031916815560018101859055918201849055600382018490556004820184905560058201939093550180546001600160b01b0319169055517fd9ec440ede2a9effeb2f3ca0f2dc66bd7d19f6d24c5a2eeac607b92249ead9a6916109d791611b00565b60405180910390a1565b33600090815260016020818152604090922060028101805460ff191660ff86161790558451610a189391909201919085019061139a565b5033600081815260016020908152604080832060028101805461ff001916905580546001600160a01b03191690941790935560079052205460ff16610ab457336000818152600760205260408120805460ff191660019081179091556008805491820181559091527ff3f7a9fe364faab93b216da50a3214154f22a0a2b415b23a84c8169e8b636ee30180546001600160a01b03191690911790555b7f1c48490734c1df93c5c1d501b292f174fbbeba83b7425de61b9210f53a43014b3383836040516104ec93929190611ba4565b6009546001600160a01b031681565b6008818154811061063c57fe5b336001600160a01b0382161415610b2c5760405162461bcd60e51b81526004016103f090611d6f565b33600090815260036020526040902054861115610b5b5760405162461bcd60e51b81526004016103f090611d3f565b33600081815260026020818152604080842080546001600160a01b0319908116909617815560068082018054600184018e90559583018c9055600383018b9055600483018a905560059092018d9055939095166001600160a01b0387161761ffff60a01b191690945552205460ff16610c29576005805460018181019092557f036b6384b5eca791c62761152d0c79bb0604c104a5fb6f4eb0703f3154bb3db00180546001600160a01b031916339081179091556000908152600660205260409020805460ff191690911790555b336000818152600260205260409081902090517f829a26d0bc73d314330279793aacabcec3f5240401e4f2bfb5f23463226807e692610c749285926001820191600301908c90611b0e565b60405180910390a1505050505050565b60048181548110610c9157fe5b6000918252602091829020600890910201805460408051808201825260018401548152600284015481860152815180830190925260038401548252600484015494820194909452600583015460068401546007909401546001600160a01b03938416965091939092169086565b336000908152600360205260409020545b90565b610d1a611348565b5033600090815260026020818152604092839020835160e08101855281546001600160a01b03908116825285518087018752600184015481529483015485850152818401949094528451808601865260038301548152600483015493810193909352938401919091526005810154606084018190526006909101548083166080850181905260ff600160a01b83048116151560a0870152600160a81b909204909116151560c08501529091841614610de45760405162461bcd60e51b81526004016103f090611d1f565b33600090815260036020526040902054811115610e135760405162461bcd60e51b81526004016103f090611d4f565b3360009081526003602052604080822080548490039055516001600160a01b0385169183156108fc02918491818181858888f19350505050158015610e5c573d6000803e3d6000fd5b50610e65611414565b6040518060c00160405280336001600160a01b031681526020018460200151815260200184604001518152602001838152602001856001600160a01b031681526020014281525090507fa72f32c6c40542dbce8f8d364b06080f285674057797e2bc3a44d7dcbf99f910338584604051610ee193929190611b5a565b60405180910390a160048054600181018255600091909152815160089091027f8a35acfbc15ff81a39ae7d344fd709f28e8600b4aa8c65c6b64bfe7fe36bd19b810180546001600160a01b039384166001600160a01b03199182161790915560208085015180517f8a35acfbc15ff81a39ae7d344fd709f28e8600b4aa8c65c6b64bfe7fe36bd19c8501558101517f8a35acfbc15ff81a39ae7d344fd709f28e8600b4aa8c65c6b64bfe7fe36bd19d840155604085015180517f8a35acfbc15ff81a39ae7d344fd709f28e8600b4aa8c65c6b64bfe7fe36bd19e85015501517f8a35acfbc15ff81a39ae7d344fd709f28e8600b4aa8c65c6b64bfe7fe36bd19f83015560608401517f8a35acfbc15ff81a39ae7d344fd709f28e8600b4aa8c65c6b64bfe7fe36bd1a083015560808401517f8a35acfbc15ff81a39ae7d344fd709f28e8600b4aa8c65c6b64bfe7fe36bd1a1830180549190941691161790915560a0909101517f8a35acfbc15ff81a39ae7d344fd709f28e8600b4aa8c65c6b64bfe7fe36bd1a290910155505050565b6000602081905290815260409020805460019091015482565b33600081815260208190526040908190206001810185905583815590517f1056a3e58a3cc7c7b42f5497992b941f72ab103e0817edf8996ad2b90f331f25926104ec929091611bd3565b33600081815260036020526040808220805434908101909155905191927fd15c9547ea5c06670c0010ce19bc32d54682a4b3801ece7f3ab0c3f17106b4bb9261111d9290611bee565b60405180910390a1503360009081526003602052604090205490565b6060600880548060200260200160405190810160405280929190818152602001828054801561119157602002820191906000526020600020905b81546001600160a01b03168152600190910190602001808311611173575b5050505050905090565b60606004805480602002602001604051908101604052809291908181526020016000905b8282101561125a5760008481526020908190206040805160c0810182526008860290920180546001600160a01b039081168452825180840184526001808401548252600284015482880152858701919091528351808501855260038401548152600484015481880152938501939093526005820154606085015260068201541660808401526007015460a083015290835290920191016111bf565b50505050905090565b600061126e8261127d565b9050611279816112c0565b5050565b6000805b826001600160a01b03166005828154811061129857fe5b6000918252602090912001546001600160a01b0316146112ba57600101611281565b92915050565b6005546000190181101561133557600581600101815481106112de57fe5b600091825260209091200154600580546001600160a01b03909216918390811061130457fe5b600091825260209091200180546001600160a01b0319166001600160a01b03929092169190911790556001016112c0565b6005805490611279906000198301611468565b6040518060e0016040528060006001600160a01b0316815260200161136b611491565b8152602001611378611491565b8152600060208201819052604082018190526060820181905260809091015290565b828054600181600116156101000203166002900490600052602060002090601f016020900481019282601f106113db57805160ff1916838001178555611408565b82800160010185558215611408579182015b828111156114085782518255916020019190600101906113ed565b506108b19291506114ab565b6040518060c0016040528060006001600160a01b03168152602001611437611491565b8152602001611444611491565b81526020016000815260200160006001600160a01b03168152602001600081525090565b81548183558181111561148c5760008381526020902061148c9181019083016114ab565b505050565b604051806040016040528060008152602001600081525090565b610d0f91905b808211156108b157600081556001016114b1565b80356112ba81611e85565b80356112ba81611e9c565b600082601f8301126114ec57600080fd5b81356114ff6114fa82611dc2565b611d9b565b9150808252602083016020830185838301111561151b57600080fd5b611526838284611e30565b50505092915050565b80356112ba81611ea5565b80356112ba81611eae565b60006020828403121561155757600080fd5b600061156384846114c5565b949350505050565b60006020828403121561157d57600080fd5b600061156384846114d0565b6000806040838503121561159c57600080fd5b823567ffffffffffffffff8111156115b357600080fd5b6115bf858286016114db565b92505060206115d08582860161153a565b9150509250929050565b6000602082840312156115ec57600080fd5b6000611563848461152f565b6000806040838503121561160b57600080fd5b6000611617858561152f565b92505060206115d08582860161152f565b60008060008060008060c0878903121561164157600080fd5b600061164d898961152f565b965050602061165e89828a0161152f565b955050604061166f89828a0161152f565b945050606061168089828a0161152f565b935050608061169189828a0161152f565b92505060a06116a289828a016114c5565b9150509295509295509295565b60006116bb83836116fc565b505060200190565b60006116cf8383611982565b50506101000190565b60006116e48383611a5b565b50506101200190565b6116f681611e1f565b82525050565b6116f681611dfd565b600061171082611df0565b61171a8185611df4565b935061172583611dea565b8060005b8381101561175357815161173d88826116af565b975061174883611dea565b925050600101611729565b509495945050505050565b600061176982611df0565b6117738185611df4565b935061177e83611dea565b8060005b8381101561175357815161179688826116c3565b97506117a183611dea565b925050600101611782565b60006117b782611df0565b6117c18185611df4565b93506117cc83611dea565b8060005b838110156117535781516117e488826116d8565b97506117ef83611dea565b9250506001016117d0565b6116f681611e08565b600061180e82611df0565b6118188185611df4565b9350611828818560208601611e3c565b61183181611e7b565b9093019392505050565b6000611848601883611df4565b7f647269766572206164647265737320696e636f72726563740000000000000000815260200192915050565b6000611881601483611df4565b732cb7ba9030b932903737ba103090223934bb32b960611b815260200192915050565b60006118b1601583611df4565b74496e73756666696369656e742062616c616e63652160581b815260200192915050565b60006118e2601483611df4565b73496e73756666696369656e742042616c616e636560601b815260200192915050565b6000611912601683611df4565b753cb7ba9030b932903737ba103a343290323934bb32b960511b815260200192915050565b6000611944602983611df4565b7f6472697665722063616e206e6f74207265717565737420746f2068696d73656c8152683317b432b939b2b63360b91b602082015260400192915050565b805161010083019061199484826116fc565b5060208201516119a760208501826119f9565b5060408201516119ba60608501826119f9565b5060608201516119cd60a0850182611ae0565b5060808201516119e060c08501826116fc565b5060a08201516119f360e0850182611ae0565b50505050565b80516040830190611a0a8482611ae0565b5060208201516119f36020850182611ae0565b80546040830190611a2d81611e68565b611a378582611ae0565b50506001820154611a4781611e68565b611a546020860182611ae0565b5050505050565b8051610120830190611a6d84826116fc565b506020820151611a8060208501826119f9565b506040820151611a9360608501826119f9565b506060820151611aa660a0850182611ae0565b506080820151611ab960c08501826116fc565b5060a0820151611acc60e08501826117fa565b5060c08201516119f36101008501826117fa565b6116f681610d0f565b6116f681611e19565b602081016112ba82846116fc565b602081016112ba82846116ed565b60e08101611b1c82886116ed565b611b2960208301876116ed565b611b366040830186611a1d565b611b436080830185611a1d565b611b5060c0830184611ae0565b9695505050505050565b60608101611b6882866116ed565b611b7560208301856116ed565b6115636040830184611ae0565b60408101611b9082856116ed565b611b9d60208301846117fa565b9392505050565b60608101611bb282866116ed565b8181036020830152611bc48185611803565b90506115636040830184611ae9565b60608101611be182856116ed565b611b9d6020830184611a1d565b60408101611bfc82856116ed565b611b9d6020830184611ae0565b60408101611c1782856116fc565b611b9d60208301846116ed565b60808101611c3282876116fc565b8181036020830152611c448186611803565b9050611c536040830185611ae9565b611c6060608301846117fa565b95945050505050565b6101008101611c7882896116fc565b611c8560208301886119f9565b611c9260608301876119f9565b611c9f60a0830186611ae0565b611cac60c08301856116fc565b611cb960e0830184611ae0565b979650505050505050565b60808101611cd282866116fc565b611cdf6020830185611ae0565b6115636040830184611a1d565b60208082528101611b9d8184611705565b60208082528101611b9d818461175e565b60208082528101611b9d81846117ac565b602080825281016112ba8161183b565b602080825281016112ba81611874565b602080825281016112ba816118a4565b602080825281016112ba816118d5565b602080825281016112ba81611905565b602080825281016112ba81611937565b602081016112ba8284611ae0565b60408101611bfc8285611ae0565b60405181810167ffffffffffffffff81118282101715611dba57600080fd5b604052919050565b600067ffffffffffffffff821115611dd957600080fd5b506020601f91909101601f19160190565b60200190565b5190565b90815260200190565b60006112ba82611e0d565b151590565b6001600160a01b031690565b60ff1690565b60006112ba8260006112ba82611dfd565b82818337506000910152565b60005b83811015611e57578181015183820152602001611e3f565b838111156119f35750506000910152565b60006112ba611e7683610d0f565b610d0f565b601f01601f191690565b611e8e81611dfd565b8114611e9957600080fd5b50565b611e8e81611e08565b611e8e81610d0f565b611e8e81611e1956fea365627a7a7231582037391002d7bfc1e71cbbc371ec73f8f49920ba076b8333e34a4b30f0a6fd7b936c6578706572696d656e74616cf564736f6c63430005100040",
  "source": "pragma solidity ^0.5;\r\npragma experimental ABIEncoderV2;\r\n\r\n\r\ncontract Ride{\r\n\r\n    struct Location {\r\n        uint longtitude;\r\n        uint latitude; \r\n    }\r\n    struct Driver {\r\n        address id;\r\n        string carPlate;\r\n        uint8 carSize;\r\n        bool availabilty;  \r\n    }\r\n    struct Request {\r\n        address user;\r\n        Location startPoint;\r\n        Location endPoint;\r\n        uint256 cost;\r\n        address payable driver;\r\n        bool driverConfirmation;\r\n        bool userConfirmation;\r\n    }\r\n\r\n    struct History {\r\n        address user;\r\n        Location startPoint;\r\n        Location endPoint;\r\n        uint256 cost;\r\n        address payable driver;\r\n        uint256 timestamp;\r\n    }\r\n\r\n\r\n\r\n\r\n    \r\n    // Declare Events\r\n    event DriverAdded(address driver, string carPlate, uint8 carSize);\r\n    event AvailabiltyChanged(address driver, bool availabilty);\r\n    event LocationChanged(address driver,Location location );\r\n    event RideRequested(address driver, address user, Location start, Location end, uint256 cost);\r\n    event RideAccepted(address user, uint256 cost, Location startPoint);\r\n    event RideRequestDeleted(address user, address driver );\r\n    event RideRequestCanceled(address user );\r\n    event PaymentSuccesful(address user, address driver, uint256 amount);\r\n    event DepositMade(address user , uint amount);\r\n\r\n\r\n    mapping(address => Location) public locations;\r\n    mapping(address => Driver) public drivers;\r\n    mapping(address => Request)  rideRequests;\r\n    mapping(address => uint) private balances;\r\n\r\n    History[] public history;\r\n\r\n\r\n    // Array to store the address  of requestedRide and drivers\r\n    address[] public requestArray;\r\n    mapping(address => bool) private requestInserted;\r\n    mapping(address => bool) private driverInserted;\r\n    address[]  public driverArray; \r\n\r\n\r\n\r\n\r\n    // Owner of the contract\r\n    address public owner;\r\n    constructor() public  {\r\n        owner = msg.sender;\r\n    }\r\n\r\n    modifier isDriver(address id){\r\n        require(drivers[id].id == id,\"You are not a Driver\");\r\n         _;\r\n    }\r\n\r\n\r\n    function deposit() public payable returns(uint) {\r\n         balances[msg.sender] += msg.value;\r\n\r\n         emit DepositMade(msg.sender, msg.value);\r\n\r\n         return balances[msg.sender];\r\n    }\r\n\r\n\r\n    function withdraw(uint withdrawAmount) public returns (uint remainingBal) {\r\n        // Check enough balance available\r\n        require(withdrawAmount <= balances[msg.sender], \"Insufficient Balance\");\r\n        \r\n        balances[msg.sender] -= withdrawAmount;\r\n        msg.sender.transfer(withdrawAmount);\r\n        \r\n        return balances[msg.sender];\r\n    }\r\n\r\n\r\n    function balance() public view returns (uint) {\r\n        return balances[msg.sender];\r\n    }\r\n\r\n    function ridePayment(address payable _driver)  public payable  {\r\n        \r\n        Request memory request = rideRequests[msg.sender];\r\n        uint amount = request.cost;\r\n        // check balance and driver address \r\n        require(_driver == request.driver, \"driver address incorrect\");\r\n        require(amount <= balances[msg.sender], \"Insufficient Balance\");\r\n        \r\n        balances[msg.sender] -= amount;\r\n\r\n        // transfer moeny to the driver\r\n        _driver.transfer(amount);\r\n\r\n        // add \r\n        History memory h =  History (\r\n        {\r\n        user: msg.sender,\r\n        startPoint: request.startPoint,\r\n        endPoint: request.endPoint,\r\n        cost: amount,\r\n        driver: _driver,\r\n        timestamp: block.timestamp\r\n        });\r\n\r\n\r\n        emit PaymentSuccesful(msg.sender,_driver , amount);\r\n\r\n        \r\n        history.push(h);\r\n    \r\n          \r\n    }\r\n\r\n\r\n    function fetchHistory() view public returns(History[] memory){\r\n        return history;\r\n    }\r\n\r\n\r\n\r\n\r\n\r\n\r\n    function setLocation(uint _latitude, uint _longtitude ) public  {\r\n        locations[msg.sender].latitude = _latitude;\r\n        locations[msg.sender].longtitude = _longtitude;\r\n\r\n        emit LocationChanged(msg.sender, locations[msg.sender]);\r\n    }\r\n\r\n    function addDriverInformation(string memory _carPlate, uint8 _carSize) public {\r\n        drivers[msg.sender].carSize = _carSize;\r\n        drivers[msg.sender].carPlate = _carPlate;\r\n        drivers[msg.sender].availabilty = false;\r\n        drivers[msg.sender].id = msg.sender;\r\n\r\n        if(!driverInserted[msg.sender]){\r\n            driverInserted[msg.sender] = true;\r\n            driverArray.push(msg.sender);\r\n        }\r\n\r\n        emit DriverAdded(msg.sender, _carPlate, _carSize);\r\n    }\r\n\r\n    function changeAvailabilty(bool _available) public isDriver(msg.sender) {\r\n        drivers[msg.sender].availabilty = _available;\r\n        emit AvailabiltyChanged(msg.sender, _available);\r\n    }\r\n\r\n\r\n    function rideRequest(uint256 _cost, uint  _startLongtitude,uint  _startLatitude ,uint  _endLongtitude,uint  _endLatitude, address payable _driver) public {\r\n        require(msg.sender!= _driver, \"driver can not request to himself/herself\");\r\n        require(balances[msg.sender]>= _cost, \"Insufficient balance!\");\r\n        rideRequests[msg.sender].user = msg.sender;\r\n        rideRequests[msg.sender].driver = _driver;\r\n\r\n        // NEED TO REFACTORED\r\n        rideRequests[msg.sender].startPoint.longtitude = _startLongtitude;\r\n        rideRequests[msg.sender].startPoint.latitude = _startLatitude;\r\n        rideRequests[msg.sender].endPoint.longtitude = _endLongtitude;\r\n        rideRequests[msg.sender].endPoint.latitude = _endLatitude;\r\n        // \r\n        \r\n        rideRequests[msg.sender].cost = _cost;\r\n        rideRequests[msg.sender].driverConfirmation = false;\r\n        rideRequests[msg.sender].userConfirmation = false;\r\n        \r\n        if(!requestInserted[msg.sender]){\r\n            requestArray.push(msg.sender);\r\n            requestInserted[msg.sender] = true;\r\n        }\r\n\r\n        emit RideRequested(_driver, msg.sender, rideRequests[msg.sender].startPoint,  rideRequests[msg.sender].endPoint, _cost);\r\n    }\r\n\r\n\r\n    function fetchAllRequests() public view  isDriver(msg.sender) returns(Request[] memory ) {\r\n        Request[] memory request = new Request[](requestArray.length);\r\n\r\n         for (uint r = 0; r < requestArray.length; r++) {\r\n             address dd = requestArray[r];\r\n             if(rideRequests[dd].driver == msg.sender ){\r\n                 request[r] = rideRequests[dd];\r\n             }\r\n\r\n         }\r\n         return request;\r\n\r\n    }\r\n\r\n    function acceptRequest(address user) public {\r\n        require(rideRequests[user].driver == msg.sender, \"you are not the driver\");\r\n        rideRequests[user].driverConfirmation = true;\r\n\r\n        emit RideAccepted(rideRequests[user].user, rideRequests[user].cost, rideRequests[user].startPoint);\r\n\r\n\r\n    }\r\n\r\n\r\n    \r\n\r\n    function fetchAllDrivers() external returns( address[] memory){\r\n        return driverArray;\r\n\r\n    }\r\n    function declineRequest(address user) public  isDriver(msg.sender){\r\n        require(rideRequests[user].driver == msg.sender, \"you are not the driver\");\r\n\r\n        delete rideRequests[user];\r\n        RemoveRequestByValue(user);\r\n        requestInserted[user] = false;\r\n\r\n        emit RideRequestDeleted(user,msg.sender);\r\n\r\n\r\n    }\r\n\r\n    function cancelRequest() public {\r\n        // address driver = rideRequests[msg.sender].driver;\r\n\r\n        RemoveRequestByValue(msg.sender);\r\n        requestInserted[msg.sender] = false;\r\n\r\n        delete rideRequests[msg.sender];\r\n\r\n        emit RideRequestCanceled(msg.sender);\r\n\r\n    }\r\n\r\n    \r\n  /** Removes the given value in an array. */\r\n  function RemoveRequestByValue(address value) private {\r\n    uint i = IndexOf(value);\r\n    RemoveRequestByIndex(i);\r\n  }\r\n\r\n  /** Removes the value at the given index in an array. */\r\n  function RemoveRequestByIndex( uint i) private{\r\n    while (i<requestArray.length-1) {\r\n      requestArray[i] = requestArray[i+1];\r\n      i++;\r\n    }\r\n    requestArray.length--;\r\n    \r\n  }\r\n\r\n   function IndexOf(address value) private returns(uint) {\r\n    uint i = 0;\r\n    while (requestArray[i] != value) {\r\n      i++;\r\n    }\r\n    return i;\r\n  }\r\n\r\n\r\n\r\n}",
  "sourcePath": "D:\\CODES\\blockchain\\Ride\\contracts\\Ride.sol",
  "compiler": {
    "name": "solc",
    "version": "0.5.16+commit.9c3226ce.Emscripten.clang"
  },
  "schemaVersion": "3.4.4",
  "updatedAt": "2022-01-09T14:39:18.190Z",
  "networkType": "ethereum",
  "devdoc": {
    "methods": {}
  },
  "userdoc": {
    "methods": {}
  }
}