{
  "contractName": "Ride",
  "abi": [
    {
      "constant": true,
      "inputs": [
        {
          "internalType": "address",
          "name": "",
          "type": "address"
        }
      ],
      "name": "drivers",
      "outputs": [
        {
          "internalType": "address",
          "name": "id",
          "type": "address"
        },
        {
          "internalType": "string",
          "name": "carPlate",
          "type": "string"
        },
        {
          "internalType": "uint256",
          "name": "carSize",
          "type": "uint256"
        },
        {
          "internalType": "bool",
          "name": "availabilty",
          "type": "bool"
        }
      ],
      "payable": false,
      "stateMutability": "view",
      "type": "function"
    },
    {
      "constant": true,
      "inputs": [
        {
          "internalType": "address",
          "name": "",
          "type": "address"
        }
      ],
      "name": "locations",
      "outputs": [
        {
          "internalType": "uint256",
          "name": "longtitude",
          "type": "uint256"
        },
        {
          "internalType": "uint256",
          "name": "latitude",
          "type": "uint256"
        }
      ],
      "payable": false,
      "stateMutability": "view",
      "type": "function"
    },
    {
      "constant": false,
      "inputs": [
        {
          "internalType": "uint256",
          "name": "_latitude",
          "type": "uint256"
        },
        {
          "internalType": "uint256",
          "name": "_longtitude",
          "type": "uint256"
        }
      ],
      "name": "setLocation",
      "outputs": [],
      "payable": false,
      "stateMutability": "nonpayable",
      "type": "function"
    },
    {
      "constant": false,
      "inputs": [
        {
          "internalType": "string",
          "name": "_carPlate",
          "type": "string"
        },
        {
          "internalType": "uint256",
          "name": "_carSize",
          "type": "uint256"
        }
      ],
      "name": "addDriverInformation",
      "outputs": [],
      "payable": false,
      "stateMutability": "nonpayable",
      "type": "function"
    },
    {
      "constant": false,
      "inputs": [
        {
          "internalType": "bool",
          "name": "_available",
          "type": "bool"
        }
      ],
      "name": "changeAvailabilty",
      "outputs": [],
      "payable": false,
      "stateMutability": "nonpayable",
      "type": "function"
    },
    {
      "constant": false,
      "inputs": [
        {
          "internalType": "uint256",
          "name": "_cost",
          "type": "uint256"
        },
        {
          "internalType": "uint256",
          "name": "_startLongtitude",
          "type": "uint256"
        },
        {
          "internalType": "uint256",
          "name": "_startLatitude",
          "type": "uint256"
        },
        {
          "internalType": "uint256",
          "name": "_endLongtitude",
          "type": "uint256"
        },
        {
          "internalType": "uint256",
          "name": "_endLatitude",
          "type": "uint256"
        },
        {
          "internalType": "address payable",
          "name": "_driver",
          "type": "address"
        }
      ],
      "name": "rideRequest",
      "outputs": [],
      "payable": false,
      "stateMutability": "nonpayable",
      "type": "function"
    },
    {
      "constant": false,
      "inputs": [
        {
          "internalType": "address",
          "name": "user",
          "type": "address"
        }
      ],
      "name": "acceptRequest",
      "outputs": [],
      "payable": false,
      "stateMutability": "nonpayable",
      "type": "function"
    },
    {
      "constant": false,
      "inputs": [
        {
          "internalType": "address",
          "name": "d",
          "type": "address"
        }
      ],
      "name": "ridePayment",
      "outputs": [],
      "payable": true,
      "stateMutability": "payable",
      "type": "function"
    },
    {
      "constant": false,
      "inputs": [],
      "name": "cancelRequest",
      "outputs": [],
      "payable": false,
      "stateMutability": "nonpayable",
      "type": "function"
    },
    {
      "constant": false,
      "inputs": [],
      "name": "declineRequest",
      "outputs": [],
      "payable": false,
      "stateMutability": "nonpayable",
      "type": "function"
    },
    {
      "constant": false,
      "inputs": [],
      "name": "fetchAllDrivers",
      "outputs": [],
      "payable": false,
      "stateMutability": "nonpayable",
      "type": "function"
    }
  ],
  "bytecode": "0x608060405234801561001057600080fd5b5061070d806100206000396000f3fe60806040526004361061009c5760003560e01c8063873aaadc11610064578063873aaadc146102815780639f8c75b014610296578063b70bf16f146102e7578063bdc86aab146102fd578063c0f4d29b14610349578063da31086c146102815761009c565b80632b8cc346146100a15780633f6b55fb146100d65780634aa601861461018b5780635610f88414610255578063851b16f514610281575b600080fd5b3480156100ad57600080fd5b506100d4600480360360208110156100c457600080fd5b50356001600160a01b0316610379565b005b3480156100e257600080fd5b506100d4600480360360408110156100f957600080fd5b81019060208101813564010000000081111561011457600080fd5b82018360208201111561012657600080fd5b8035906020019184600183028401116401000000008311171561014857600080fd5b91908080601f016020809104026020016040519081016040528093929190818152602001838380828437600092019190915250929550509135925061037c915050565b34801561019757600080fd5b506101be600480360360208110156101ae57600080fd5b50356001600160a01b03166103da565b604080516001600160a01b0386168152908101839052811515606082015260806020808301828152865192840192909252855160a084019187019080838360005b838110156102175781810151838201526020016101ff565b50505050905090810190601f1680156102445780820380516001836020036101000a031916815260200191505b509550505050505060405180910390f35b34801561026157600080fd5b506100d46004803603602081101561027857600080fd5b5035151561049d565b34801561028d57600080fd5b506100d4610524565b3480156102a257600080fd5b506100d4600480360360c08110156102b957600080fd5b5080359060208101359060408101359060608101359060808101359060a001356001600160a01b0316610526565b6100d4600480360360208110156100c457600080fd5b34801561030957600080fd5b506103306004803603602081101561032057600080fd5b50356001600160a01b03166105e0565b6040805192835260208301919091528051918290030190f35b34801561035557600080fd5b506100d46004803603604081101561036c57600080fd5b50803590602001356105f9565b50565b3360009081526001602081815260409092206002810184905584516103a993919092019190850190610614565b505033600081815260016020526040902060038101805460ff1916905580546001600160a01b031916909117905550565b600160208181526000928352604092839020805481840180548651600261010097831615979097026000190190911695909504601f81018590048502860185019096528585526001600160a01b03909116949193929091908301828280156104835780601f1061045857610100808354040283529160200191610483565b820191906000526020600020905b81548152906001019060200180831161046657829003601f168201915b50505050600283015460039093015491929160ff16905084565b336000818152600160205260409020546001600160a01b03168114610500576040805162461bcd60e51b81526020600482015260146024820152732cb7ba9030b932903737ba103090223934bb32b960611b604482015290519081900360640190fd5b50336000908152600160205260409020600301805460ff1916911515919091179055565b565b336001600160a01b038216141561056e5760405162461bcd60e51b81526004018080602001828103825260298152602001806106b06029913960400191505060405180910390fd5b33600081815260026020819052604090912080546001600160a01b0319908116909317815560068101805460018301999099559181019690965560038601949094556004850192909255600590930194909455919092166001600160a01b039092169190911761ffff60a01b19169055565b6000602081905290815260409020805460019091015482565b33600090815260208190526040902060018101929092559055565b828054600181600116156101000203166002900490600052602060002090601f016020900481019282601f1061065557805160ff1916838001178555610682565b82800160010185558215610682579182015b82811115610682578251825591602001919060010190610667565b5061068e929150610692565b5090565b6106ac91905b8082111561068e5760008155600101610698565b9056fe6472697665722063616e206e6f74207265717565737420746f2068696d73656c662f68657273656c66a265627a7a72315820627bb407b7257cc258f0994396b6be24720d275fea92746fd03030426bb42c0364736f6c63430005100032",
  "source": "pragma solidity ^0.5;\r\n\r\ncontract Ride{\r\n    struct Location {\r\n        uint longtitude;\r\n        uint latitude; \r\n    }\r\n    struct Driver {\r\n        address id;\r\n        string carPlate;\r\n        uint carSize;\r\n        bool availabilty;  \r\n    }\r\n    struct Request {\r\n        address user;\r\n        Location startPoint;\r\n        Location endPoint;\r\n        uint256 cost;\r\n        address payable driver;\r\n        bool driverConfirmation;\r\n        bool userConfirmation;\r\n    }\r\n\r\n    mapping(address => Location) public locations;\r\n    mapping(address => Driver) public drivers;\r\n    mapping(address => Request)  rideRequests;\r\n\r\n\r\n    modifier isDriver(address id){\r\n        require(drivers[id].id == id,\"You are not a Driver\");\r\n         _;\r\n    }\r\n\r\n    function setLocation(uint _latitude, uint _longtitude ) public  {\r\n        locations[msg.sender].latitude = _latitude;\r\n        locations[msg.sender].longtitude = _longtitude;\r\n    }\r\n\r\n    function addDriverInformation(string memory _carPlate, uint _carSize) public {\r\n        drivers[msg.sender].carSize = _carSize;\r\n        drivers[msg.sender].carPlate = _carPlate;\r\n        drivers[msg.sender].availabilty = false;\r\n        drivers[msg.sender].id = msg.sender;\r\n\r\n    }\r\n\r\n    function changeAvailabilty(bool _available) public isDriver(msg.sender) {\r\n        drivers[msg.sender].availabilty = _available;\r\n    }\r\n\r\n\r\n    function rideRequest(uint256 _cost, uint  _startLongtitude,uint  _startLatitude ,uint  _endLongtitude,uint  _endLatitude, address payable _driver) public {\r\n        require(msg.sender!= _driver, \"driver can not request to himself/herself\");\r\n\r\n        rideRequests[msg.sender].user = msg.sender;\r\n        rideRequests[msg.sender].driver = _driver;\r\n        rideRequests[msg.sender].startPoint.longtitude = _startLongtitude;\r\n        rideRequests[msg.sender].startPoint.latitude = _startLatitude;\r\n        rideRequests[msg.sender].endPoint.longtitude = _endLongtitude;\r\n        rideRequests[msg.sender].endPoint.latitude = _endLatitude;\r\n        rideRequests[msg.sender].cost = _cost;\r\n        rideRequests[msg.sender].driverConfirmation = false;\r\n        rideRequests[msg.sender].userConfirmation = false;\r\n\r\n    }\r\n\r\n    function acceptRequest(address user) public {\r\n\r\n    }\r\n\r\n    function ridePayment(address d) payable public {\r\n\r\n    }\r\n\r\n    function cancelRequest() public {\r\n\r\n    }\r\n\r\n    function declineRequest() public {\r\n\r\n    }\r\n\r\n    function fetchAllDrivers() public {\r\n\r\n    }\r\n\r\n\r\n\r\n\r\n}",
  "sourcePath": "D:\\CODES\\blockchain\\Ride\\contracts\\Ride.sol",
  "compiler": {
    "name": "solc",
    "version": "0.5.16+commit.9c3226ce.Emscripten.clang"
  },
  "schemaVersion": "3.4.4",
  "updatedAt": "2022-01-03T18:41:41.735Z",
  "devdoc": {
    "methods": {}
  },
  "userdoc": {
    "methods": {}
  }
}