{
  "contractName": "Ride",
  "abi": [
    {
      "anonymous": false,
      "inputs": [
        {
          "indexed": false,
          "internalType": "address",
          "name": "driver",
          "type": "address"
        },
        {
          "indexed": false,
          "internalType": "bool",
          "name": "availabilty",
          "type": "bool"
        }
      ],
      "name": "AvailabiltyChanged",
      "type": "event"
    },
    {
      "anonymous": false,
      "inputs": [
        {
          "indexed": false,
          "internalType": "address",
          "name": "driver",
          "type": "address"
        },
        {
          "indexed": false,
          "internalType": "string",
          "name": "carPlate",
          "type": "string"
        },
        {
          "indexed": false,
          "internalType": "uint8",
          "name": "carSize",
          "type": "uint8"
        }
      ],
      "name": "DriverAdded",
      "type": "event"
    },
    {
      "anonymous": false,
      "inputs": [
        {
          "indexed": false,
          "internalType": "address",
          "name": "driver",
          "type": "address"
        },
        {
          "components": [
            {
              "internalType": "uint256",
              "name": "longtitude",
              "type": "uint256"
            },
            {
              "internalType": "uint256",
              "name": "latitude",
              "type": "uint256"
            }
          ],
          "indexed": false,
          "internalType": "struct Ride.Location",
          "name": "location",
          "type": "tuple"
        }
      ],
      "name": "LocationChanged",
      "type": "event"
    },
    {
      "constant": true,
      "inputs": [
        {
          "internalType": "address",
          "name": "",
          "type": "address"
        }
      ],
      "name": "drivers",
      "outputs": [
        {
          "internalType": "address",
          "name": "id",
          "type": "address"
        },
        {
          "internalType": "string",
          "name": "carPlate",
          "type": "string"
        },
        {
          "internalType": "uint8",
          "name": "carSize",
          "type": "uint8"
        },
        {
          "internalType": "bool",
          "name": "availabilty",
          "type": "bool"
        }
      ],
      "payable": false,
      "stateMutability": "view",
      "type": "function"
    },
    {
      "constant": true,
      "inputs": [
        {
          "internalType": "address",
          "name": "",
          "type": "address"
        }
      ],
      "name": "locations",
      "outputs": [
        {
          "internalType": "uint256",
          "name": "longtitude",
          "type": "uint256"
        },
        {
          "internalType": "uint256",
          "name": "latitude",
          "type": "uint256"
        }
      ],
      "payable": false,
      "stateMutability": "view",
      "type": "function"
    },
    {
      "constant": false,
      "inputs": [
        {
          "internalType": "uint256",
          "name": "_latitude",
          "type": "uint256"
        },
        {
          "internalType": "uint256",
          "name": "_longtitude",
          "type": "uint256"
        }
      ],
      "name": "setLocation",
      "outputs": [],
      "payable": false,
      "stateMutability": "nonpayable",
      "type": "function"
    },
    {
      "constant": false,
      "inputs": [
        {
          "internalType": "string",
          "name": "_carPlate",
          "type": "string"
        },
        {
          "internalType": "uint8",
          "name": "_carSize",
          "type": "uint8"
        }
      ],
      "name": "addDriverInformation",
      "outputs": [],
      "payable": false,
      "stateMutability": "nonpayable",
      "type": "function"
    },
    {
      "constant": false,
      "inputs": [
        {
          "internalType": "bool",
          "name": "_available",
          "type": "bool"
        }
      ],
      "name": "changeAvailabilty",
      "outputs": [],
      "payable": false,
      "stateMutability": "nonpayable",
      "type": "function"
    },
    {
      "constant": false,
      "inputs": [
        {
          "internalType": "uint256",
          "name": "_cost",
          "type": "uint256"
        },
        {
          "internalType": "uint256",
          "name": "_startLongtitude",
          "type": "uint256"
        },
        {
          "internalType": "uint256",
          "name": "_startLatitude",
          "type": "uint256"
        },
        {
          "internalType": "uint256",
          "name": "_endLongtitude",
          "type": "uint256"
        },
        {
          "internalType": "uint256",
          "name": "_endLatitude",
          "type": "uint256"
        },
        {
          "internalType": "address payable",
          "name": "_driver",
          "type": "address"
        }
      ],
      "name": "rideRequest",
      "outputs": [],
      "payable": false,
      "stateMutability": "nonpayable",
      "type": "function"
    },
    {
      "constant": false,
      "inputs": [
        {
          "internalType": "address",
          "name": "user",
          "type": "address"
        }
      ],
      "name": "acceptRequest",
      "outputs": [],
      "payable": false,
      "stateMutability": "nonpayable",
      "type": "function"
    },
    {
      "constant": false,
      "inputs": [
        {
          "internalType": "address",
          "name": "d",
          "type": "address"
        }
      ],
      "name": "ridePayment",
      "outputs": [],
      "payable": true,
      "stateMutability": "payable",
      "type": "function"
    },
    {
      "constant": false,
      "inputs": [],
      "name": "cancelRequest",
      "outputs": [],
      "payable": false,
      "stateMutability": "nonpayable",
      "type": "function"
    },
    {
      "constant": false,
      "inputs": [],
      "name": "declineRequest",
      "outputs": [],
      "payable": false,
      "stateMutability": "nonpayable",
      "type": "function"
    },
    {
      "constant": false,
      "inputs": [],
      "name": "fetchAllDrivers",
      "outputs": [],
      "payable": false,
      "stateMutability": "nonpayable",
      "type": "function"
    }
  ],
  "bytecode": "0x608060405234801561001057600080fd5b50610aa1806100206000396000f3fe60806040526004361061009c5760003560e01c80638baafd25116100645780638baafd25146101315780639f8c75b014610151578063b70bf16f14610171578063bdc86aab1461017f578063c0f4d29b146101ad578063da31086c1461011c5761009c565b80632b8cc346146100a15780634aa60186146100c35780635610f884146100fc578063851b16f51461011c578063873aaadc1461011c575b600080fd5b3480156100ad57600080fd5b506100c16100bc3660046105eb565b6101cd565b005b3480156100cf57600080fd5b506100e36100de3660046105eb565b6101d0565b6040516100f394939291906108c7565b60405180910390f35b34801561010857600080fd5b506100c1610117366004610611565b610295565b34801561012857600080fd5b506100c1610334565b34801561013d57600080fd5b506100c161014c36600461062f565b610336565b34801561015d57600080fd5b506100c161016c3660046106b0565b6103cc565b6100c16100bc3660046105eb565b34801561018b57600080fd5b5061019f61019a3660046105eb565b610467565b6040516100f392919061092c565b3480156101b957600080fd5b506100c16101c8366004610680565b610480565b50565b600160208181526000928352604092839020805481840180548651600261010097831615979097026000190190911695909504601f81018590048502860185019096528585526001600160a01b03909116949193929091908301828280156102795780601f1061024e57610100808354040283529160200191610279565b820191906000526020600020905b81548152906001019060200180831161025c57829003601f168201915b5050506002909301549192505060ff8082169161010090041684565b336000818152600160205260409020546001600160a01b031681146102d55760405162461bcd60e51b81526004016102cc9061090c565b60405180910390fd5b3360008181526001602052604090819020600201805461ff00191661010086151502179055517f6923d9e41642be9a40b1446e2f83513e76f6f3c999c1f72f7782b8ee7da5ee8b9161032891859061085b565b60405180910390a15050565b565b33600090815260016020818152604090922060028101805460ff191660ff8616179055845161036d939190920191908501906104ca565b50336000818152600160205260409081902060028101805461ff001916905580546001600160a01b03191683179055517f1c48490734c1df93c5c1d501b292f174fbbeba83b7425de61b9210f53a43014b91610328918590859061087d565b336001600160a01b03821614156103f55760405162461bcd60e51b81526004016102cc9061091c565b33600081815260026020819052604090912080546001600160a01b0319908116909317815560068101805460018301999099559181019690965560038601949094556004850192909255600590930194909455919092166001600160a01b039092169190911761ffff60a01b19169055565b6000602081905290815260409020805460019091015482565b33600081815260208190526040908190206001810185905583815590517f1056a3e58a3cc7c7b42f5497992b941f72ab103e0817edf8996ad2b90f331f25926103289290916108ac565b828054600181600116156101000203166002900490600052602060002090601f016020900481019282601f1061050b57805160ff1916838001178555610538565b82800160010185558215610538579182015b8281111561053857825182559160200191906001019061051d565b50610544929150610548565b5090565b61056291905b80821115610544576000815560010161054e565b90565b803561057081610a2f565b92915050565b803561057081610a43565b600082601f83011261059257600080fd5b81356105a56105a08261096e565b610947565b915080825260208301602083018583830111156105c157600080fd5b6105cc8382846109d6565b50505092915050565b803561057081610a4c565b803561057081610a55565b6000602082840312156105fd57600080fd5b60006106098484610565565b949350505050565b60006020828403121561062357600080fd5b60006106098484610576565b6000806040838503121561064257600080fd5b823567ffffffffffffffff81111561065957600080fd5b61066585828601610581565b9250506020610676858286016105e0565b9150509250929050565b6000806040838503121561069357600080fd5b600061069f85856105d5565b9250506020610676858286016105d5565b60008060008060008060c087890312156106c957600080fd5b60006106d589896105d5565b96505060206106e689828a016105d5565b95505060406106f789828a016105d5565b945050606061070889828a016105d5565b935050608061071989828a016105d5565b92505060a061072a89828a01610565565b9150509295509295509295565b610740816109c5565b82525050565b610740816109a3565b610740816109ae565b600061076382610996565b61076d818561099a565b935061077d8185602086016109e2565b61078681610a25565b9093019392505050565b600061079d60148361099a565b732cb7ba9030b932903737ba103090223934bb32b960611b815260200192915050565b60006107cd60298361099a565b7f6472697665722063616e206e6f74207265717565737420746f2068696d73656c8152683317b432b939b2b63360b91b602082015260400192915050565b8054604083019061081b81610a12565b6108258582610849565b5050600182015461083581610a12565b6108426020860182610849565b5050505050565b61074081610562565b610740816109bf565b604081016108698285610737565b610876602083018461074f565b9392505050565b6060810161088b8286610737565b818103602083015261089d8185610758565b90506106096040830184610852565b606081016108ba8285610737565b610876602083018461080b565b608081016108d58287610746565b81810360208301526108e78186610758565b90506108f66040830185610852565b610903606083018461074f565b95945050505050565b6020808252810161057081610790565b60208082528101610570816107c0565b6040810161093a8285610849565b6108766020830184610849565b60405181810167ffffffffffffffff8111828210171561096657600080fd5b604052919050565b600067ffffffffffffffff82111561098557600080fd5b506020601f91909101601f19160190565b5190565b90815260200190565b6000610570826109b3565b151590565b6001600160a01b031690565b60ff1690565b6000610570826000610570826109a3565b82818337506000910152565b60005b838110156109fd5781810151838201526020016109e5565b83811115610a0c576000848401525b50505050565b6000610570610a2083610562565b610562565b601f01601f191690565b610a38816109a3565b81146101cd57600080fd5b610a38816109ae565b610a3881610562565b610a38816109bf56fea365627a7a72315820d48f36d1f3c2a7c0a96d28222d466fd76f1730e74bb184b9b802b03b1e45ff916c6578706572696d656e74616cf564736f6c63430005100040",
  "source": "pragma solidity ^0.5;\r\npragma experimental ABIEncoderV2;\r\n\r\n\r\ncontract Ride{\r\n    struct Location {\r\n        uint longtitude;\r\n        uint latitude; \r\n    }\r\n    struct Driver {\r\n        address id;\r\n        string carPlate;\r\n        uint8 carSize;\r\n        bool availabilty;  \r\n    }\r\n    struct Request {\r\n        address user;\r\n        Location startPoint;\r\n        Location endPoint;\r\n        uint256 cost;\r\n        address payable driver;\r\n        bool driverConfirmation;\r\n        bool userConfirmation;\r\n    }\r\n    \r\n    // Declare Events\r\n    event DriverAdded(address driver, string carPlate, uint8 carSize);\r\n    event AvailabiltyChanged(address driver, bool availabilty);\r\n        event LocationChanged(address driver,Location location );\r\n\r\n\r\n    mapping(address => Location) public locations;\r\n    mapping(address => Driver) public drivers;\r\n    mapping(address => Request)  rideRequests;\r\n\r\n\r\n    modifier isDriver(address id){\r\n        require(drivers[id].id == id,\"You are not a Driver\");\r\n         _;\r\n    }\r\n\r\n    function setLocation(uint _latitude, uint _longtitude ) public  {\r\n        locations[msg.sender].latitude = _latitude;\r\n        locations[msg.sender].longtitude = _longtitude;\r\n\r\n        emit LocationChanged(msg.sender, locations[msg.sender]);\r\n    }\r\n\r\n    function addDriverInformation(string memory _carPlate, uint8 _carSize) public {\r\n        drivers[msg.sender].carSize = _carSize;\r\n        drivers[msg.sender].carPlate = _carPlate;\r\n        drivers[msg.sender].availabilty = false;\r\n        drivers[msg.sender].id = msg.sender;\r\n\r\n\r\n        emit DriverAdded(msg.sender, _carPlate, _carSize);\r\n    }\r\n\r\n    function changeAvailabilty(bool _available) public isDriver(msg.sender) {\r\n        drivers[msg.sender].availabilty = _available;\r\n        emit AvailabiltyChanged(msg.sender, _available);\r\n    }\r\n\r\n\r\n    function rideRequest(uint256 _cost, uint  _startLongtitude,uint  _startLatitude ,uint  _endLongtitude,uint  _endLatitude, address payable _driver) public {\r\n        require(msg.sender!= _driver, \"driver can not request to himself/herself\");\r\n\r\n        rideRequests[msg.sender].user = msg.sender;\r\n        rideRequests[msg.sender].driver = _driver;\r\n        rideRequests[msg.sender].startPoint.longtitude = _startLongtitude;\r\n        rideRequests[msg.sender].startPoint.latitude = _startLatitude;\r\n        rideRequests[msg.sender].endPoint.longtitude = _endLongtitude;\r\n        rideRequests[msg.sender].endPoint.latitude = _endLatitude;\r\n        rideRequests[msg.sender].cost = _cost;\r\n        rideRequests[msg.sender].driverConfirmation = false;\r\n        rideRequests[msg.sender].userConfirmation = false;\r\n\r\n    }\r\n\r\n    function acceptRequest(address user) public {\r\n\r\n    }\r\n\r\n    function ridePayment(address d) payable public {\r\n\r\n    }\r\n\r\n    function cancelRequest() public {\r\n\r\n    }\r\n\r\n    function declineRequest() public {\r\n\r\n    }\r\n\r\n    function fetchAllDrivers() public {\r\n\r\n    }\r\n\r\n\r\n\r\n\r\n}",
  "sourcePath": "D:\\CODES\\blockchain\\Ride\\contracts\\Ride.sol",
  "compiler": {
    "name": "solc",
    "version": "0.5.16+commit.9c3226ce.Emscripten.clang"
  },
  "schemaVersion": "3.4.4",
  "updatedAt": "2022-01-05T20:44:04.286Z",
  "devdoc": {
    "methods": {}
  },
  "userdoc": {
    "methods": {}
  }
}